{
  "_format": "hh-sol-artifact-1",
  "contractName": "ABCTreasury",
  "sourceName": "solidities/ABCTreasury/ABCTreasury.sol",
  "abi": [
    {
      "anonymous": false,
      "inputs": [
        {
          "indexed": true,
          "internalType": "address",
          "name": "to",
          "type": "address"
        },
        {
          "indexed": false,
          "internalType": "uint256",
          "name": "amount",
          "type": "uint256"
        }
      ],
      "name": "FundsWithdrawn",
      "type": "event"
    },
    {
      "anonymous": false,
      "inputs": [
        {
          "indexed": true,
          "internalType": "bytes32",
          "name": "role",
          "type": "bytes32"
        },
        {
          "indexed": true,
          "internalType": "bytes32",
          "name": "previousAdminRole",
          "type": "bytes32"
        },
        {
          "indexed": true,
          "internalType": "bytes32",
          "name": "newAdminRole",
          "type": "bytes32"
        }
      ],
      "name": "RoleAdminChanged",
      "type": "event"
    },
    {
      "anonymous": false,
      "inputs": [
        {
          "indexed": true,
          "internalType": "bytes32",
          "name": "role",
          "type": "bytes32"
        },
        {
          "indexed": true,
          "internalType": "address",
          "name": "account",
          "type": "address"
        },
        {
          "indexed": true,
          "internalType": "address",
          "name": "sender",
          "type": "address"
        }
      ],
      "name": "RoleGranted",
      "type": "event"
    },
    {
      "anonymous": false,
      "inputs": [
        {
          "indexed": true,
          "internalType": "bytes32",
          "name": "role",
          "type": "bytes32"
        },
        {
          "indexed": true,
          "internalType": "address",
          "name": "account",
          "type": "address"
        },
        {
          "indexed": true,
          "internalType": "address",
          "name": "sender",
          "type": "address"
        }
      ],
      "name": "RoleRevoked",
      "type": "event"
    },
    {
      "inputs": [],
      "name": "DEFAULT_ADMIN_ROLE",
      "outputs": [
        {
          "internalType": "bytes32",
          "name": "",
          "type": "bytes32"
        }
      ],
      "stateMutability": "view",
      "type": "function"
    },
    {
      "inputs": [
        {
          "internalType": "bytes32",
          "name": "role",
          "type": "bytes32"
        }
      ],
      "name": "getRoleAdmin",
      "outputs": [
        {
          "internalType": "bytes32",
          "name": "",
          "type": "bytes32"
        }
      ],
      "stateMutability": "view",
      "type": "function"
    },
    {
      "inputs": [
        {
          "internalType": "address",
          "name": "account",
          "type": "address"
        }
      ],
      "name": "grantAdmin",
      "outputs": [],
      "stateMutability": "nonpayable",
      "type": "function"
    },
    {
      "inputs": [
        {
          "internalType": "bytes32",
          "name": "role",
          "type": "bytes32"
        },
        {
          "internalType": "address",
          "name": "account",
          "type": "address"
        }
      ],
      "name": "grantRole",
      "outputs": [],
      "stateMutability": "nonpayable",
      "type": "function"
    },
    {
      "inputs": [
        {
          "internalType": "bytes32",
          "name": "role",
          "type": "bytes32"
        },
        {
          "internalType": "address",
          "name": "account",
          "type": "address"
        }
      ],
      "name": "hasRole",
      "outputs": [
        {
          "internalType": "bool",
          "name": "",
          "type": "bool"
        }
      ],
      "stateMutability": "view",
      "type": "function"
    },
    {
      "inputs": [
        {
          "internalType": "address",
          "name": "admin",
          "type": "address"
        }
      ],
      "name": "initialize",
      "outputs": [],
      "stateMutability": "nonpayable",
      "type": "function"
    },
    {
      "inputs": [
        {
          "internalType": "address",
          "name": "account",
          "type": "address"
        }
      ],
      "name": "isAdmin",
      "outputs": [
        {
          "internalType": "bool",
          "name": "",
          "type": "bool"
        }
      ],
      "stateMutability": "view",
      "type": "function"
    },
    {
      "inputs": [
        {
          "internalType": "bytes32",
          "name": "role",
          "type": "bytes32"
        },
        {
          "internalType": "address",
          "name": "account",
          "type": "address"
        }
      ],
      "name": "renounceRole",
      "outputs": [],
      "stateMutability": "nonpayable",
      "type": "function"
    },
    {
      "inputs": [
        {
          "internalType": "address",
          "name": "account",
          "type": "address"
        }
      ],
      "name": "revokeAdmin",
      "outputs": [],
      "stateMutability": "nonpayable",
      "type": "function"
    },
    {
      "inputs": [
        {
          "internalType": "bytes32",
          "name": "role",
          "type": "bytes32"
        },
        {
          "internalType": "address",
          "name": "account",
          "type": "address"
        }
      ],
      "name": "revokeRole",
      "outputs": [],
      "stateMutability": "nonpayable",
      "type": "function"
    },
    {
      "inputs": [
        {
          "internalType": "bytes4",
          "name": "interfaceId",
          "type": "bytes4"
        }
      ],
      "name": "supportsInterface",
      "outputs": [
        {
          "internalType": "bool",
          "name": "",
          "type": "bool"
        }
      ],
      "stateMutability": "view",
      "type": "function"
    },
    {
      "inputs": [
        {
          "internalType": "contract ISendValueWithFallbackWithdraw",
          "name": "market",
          "type": "address"
        }
      ],
      "name": "withdrawFromEscrow",
      "outputs": [],
      "stateMutability": "nonpayable",
      "type": "function"
    },
    {
      "inputs": [
        {
          "internalType": "address payable",
          "name": "to",
          "type": "address"
        },
        {
          "internalType": "uint256",
          "name": "amount",
          "type": "uint256"
        }
      ],
      "name": "withdrawFunds",
      "outputs": [],
      "stateMutability": "nonpayable",
      "type": "function"
    },
    {
      "stateMutability": "payable",
      "type": "receive"
    }
  ],
  "bytecode": "0x608060405234801561001057600080fd5b50610e76806100206000396000f3fe6080604052600436106100a65760003560e01c806301ffc9a7146100b2578063248a9ca3146100e857806324d7806c146101155780632d345670146101355780632f2ff15d1461015757806335bb3e161461017757806336568abe1461019757806391d14854146101b7578063924ab158146101d7578063a217fddf146101f7578063c10753291461020c578063c4d66de81461022c578063d547741f1461024c576100ad565b366100ad57005b600080fd5b3480156100be57600080fd5b506100d26100cd366004610b05565b61026c565b6040516100df9190610b9f565b60405180910390f35b3480156100f457600080fd5b50610108610103366004610abe565b610297565b6040516100df9190610baa565b34801561012157600080fd5b506100d2610130366004610a77565b6102ac565b34801561014157600080fd5b50610155610150366004610a77565b6102b8565b005b34801561016357600080fd5b50610155610172366004610ad6565b6102c6565b34801561018357600080fd5b50610155610192366004610a77565b6102ef565b3480156101a357600080fd5b506101556101b2366004610ad6565b6102fa565b3480156101c357600080fd5b506100d26101d2366004610ad6565b610349565b3480156101e357600080fd5b506101556101f2366004610a77565b610374565b34801561020357600080fd5b506101086103f1565b34801561021857600080fd5b50610155610227366004610a93565b6103f6565b34801561023857600080fd5b50610155610247366004610a77565b61047d565b34801561025857600080fd5b50610155610267366004610ad6565b6104fb565b60006001600160e01b03198216637965db0b60e01b148061029157506102918261051a565b92915050565b60009081526065602052604090206001015490565b60006102918183610349565b6102c36000826104fb565b50565b6102cf82610297565b6102e0816102db610533565b610537565b6102ea838361059b565b505050565b6102c36000826102c6565b610302610533565b6001600160a01b0316816001600160a01b03161461033b5760405162461bcd60e51b815260040161033290610d48565b60405180910390fd5b6103458282610622565b5050565b60009182526065602090815260408084206001600160a01b0393909316845291905290205460ff1690565b61037f600033610349565b61039b5760405162461bcd60e51b815260040161033290610cfa565b806001600160a01b0316633ccfd60b6040518163ffffffff1660e01b8152600401600060405180830381600087803b1580156103d657600080fd5b505af11580156103ea573d6000803e3d6000fd5b5050505050565b600081565b610401600033610349565b61041d5760405162461bcd60e51b815260040161033290610cfa565b806104255750475b6104386001600160a01b038316826106a7565b816001600160a01b03167feaff4b37086828766ad3268786972c0cd24259d4c87a80f9d3963a3c3d999b0d826040516104719190610baa565b60405180910390a25050565b600054610100900460ff1680610496575060005460ff16155b6104b25760405162461bcd60e51b815260040161033290610cac565b600054610100900460ff161580156104dd576000805460ff1961ff0019909116610100171660011790555b6104e682610743565b8015610345576000805461ff00191690555050565b61050482610297565b610510816102db610533565b6102ea8383610622565b6001600160e01b031981166301ffc9a760e01b14919050565b3390565b6105418282610349565b61034557610559816001600160a01b031660146107b6565b6105648360206107b6565b604051602001610575929190610b30565b60408051601f198184030181529082905262461bcd60e51b825261033291600401610bb3565b6105a58282610349565b6103455760008281526065602090815260408083206001600160a01b03851684529091529020805460ff191660011790556105de610533565b6001600160a01b0316816001600160a01b0316837f2f8788117e7eff1d82e926ec794901d17c78024a50270940304540a733656f0d60405160405180910390a45050565b61062c8282610349565b156103455760008281526065602090815260408083206001600160a01b03851684529091529020805460ff19169055610663610533565b6001600160a01b0316816001600160a01b0316837ff6391f5c32d9c69d2a47ea670b442974b53935d1edc7fd64eb21e047a839171b60405160405180910390a45050565b804710156106c75760405162461bcd60e51b815260040161033290610c75565b6000826001600160a01b0316826040516106e090610b2d565b60006040518083038185875af1925050503d806000811461071d576040519150601f19603f3d011682016040523d82523d6000602084013e610722565b606091505b50509050806102ea5760405162461bcd60e51b815260040161033290610c1b565b600054610100900460ff168061075c575060005460ff16155b6107785760405162461bcd60e51b815260040161033290610cac565b600054610100900460ff161580156107a3576000805460ff1961ff0019909116610100171660011790555b6107ab61096e565b6104e66000836109fa565b606060006107c5836002610daf565b6107d0906002610d97565b6001600160401b038111156107f557634e487b7160e01b600052604160045260246000fd5b6040519080825280601f01601f19166020018201604052801561081f576020820181803683370190505b509050600360fc1b8160008151811061084857634e487b7160e01b600052603260045260246000fd5b60200101906001600160f81b031916908160001a905350600f60fb1b8160018151811061088557634e487b7160e01b600052603260045260246000fd5b60200101906001600160f81b031916908160001a90535060006108a9846002610daf565b6108b4906001610d97565b90505b6001811115610948576f181899199a1a9b1b9c1cb0b131b232b360811b85600f16601081106108f657634e487b7160e01b600052603260045260246000fd5b1a60f81b82828151811061091a57634e487b7160e01b600052603260045260246000fd5b60200101906001600160f81b031916908160001a90535060049490941c9361094181610dfe565b90506108b7565b5083156109675760405162461bcd60e51b815260040161033290610be6565b9392505050565b600054610100900460ff1680610987575060005460ff16155b6109a35760405162461bcd60e51b815260040161033290610cac565b600054610100900460ff161580156109ce576000805460ff1961ff0019909116610100171660011790555b6109d6610a04565b6109de610a04565b6109e6610a04565b80156102c3576000805461ff001916905550565b610345828261059b565b600054610100900460ff1680610a1d575060005460ff16155b610a395760405162461bcd60e51b815260040161033290610cac565b600054610100900460ff161580156109e6576000805460ff1961ff00199091166101001716600117905580156102c3576000805461ff001916905550565b600060208284031215610a88578081fd5b813561096781610e2b565b60008060408385031215610aa5578081fd5b8235610ab081610e2b565b946020939093013593505050565b600060208284031215610acf578081fd5b5035919050565b60008060408385031215610ae8578182fd5b823591506020830135610afa81610e2b565b809150509250929050565b600060208284031215610b16578081fd5b81356001600160e01b031981168114610967578182fd5b90565b600076020b1b1b2b9b9a1b7b73a3937b61d1030b1b1b7bab73a1604d1b82528351610b62816017850160208801610dce565b7001034b99036b4b9b9b4b733903937b6329607d1b6017918401918201528351610b93816028840160208801610dce565b01602801949350505050565b901515815260200190565b90815260200190565b6000602082528251806020840152610bd2816040850160208701610dce565b601f01601f19169190910160400192915050565b6020808252818101527f537472696e67733a20686578206c656e67746820696e73756666696369656e74604082015260600190565b6020808252603a908201527f416464726573733a20756e61626c6520746f2073656e642076616c75652c20726040820152791958da5c1a595b9d081b585e481a185d99481c995d995c9d195960321b606082015260800190565b6020808252601d908201527f416464726573733a20696e73756666696369656e742062616c616e6365000000604082015260600190565b6020808252602e908201527f496e697469616c697a61626c653a20636f6e747261637420697320616c72656160408201526d191e481a5b9a5d1a585b1a5e995960921b606082015260800190565b6020808252602e908201527f41646d696e526f6c653a2063616c6c657220646f6573206e6f7420686176652060408201526d7468652041646d696e20726f6c6560901b606082015260800190565b6020808252602f908201527f416363657373436f6e74726f6c3a2063616e206f6e6c792072656e6f756e636560408201526e103937b632b9903337b91039b2b63360891b606082015260800190565b60008219821115610daa57610daa610e15565b500190565b6000816000190483118215151615610dc957610dc9610e15565b500290565b60005b83811015610de9578181015183820152602001610dd1565b83811115610df8576000848401525b50505050565b600081610e0d57610e0d610e15565b506000190190565b634e487b7160e01b600052601160045260246000fd5b6001600160a01b03811681146102c357600080fdfea2646970667358221220d387c2a1ccedb4899b4074fec2d1bac17c3ca8c6596a3d6365c676021fa3916664736f6c63430008000033",
  "linkReferences": {},
  "deployedLinkReferences": {}
}