{
  "_format": "hh-sol-artifact-1",
  "contractName": "ABCNFTMarket",
  "sourceName": "solidities/ABCNFTMarket/ABCNFTMarket.sol",
  "abi": [
    {
      "anonymous": false,
      "inputs": [
        {
          "indexed": false,
          "internalType": "uint256",
          "name": "primaryABCproFeeBasisPoints",
          "type": "uint256"
        },
        {
          "indexed": false,
          "internalType": "uint256",
          "name": "secondaryABCproFeeBasisPoints",
          "type": "uint256"
        },
        {
          "indexed": false,
          "internalType": "uint256",
          "name": "secondaryCreatorFeeBasisPoints",
          "type": "uint256"
        }
      ],
      "name": "MarketFeesUpdated",
      "type": "event"
    },
    {
      "anonymous": false,
      "inputs": [
        {
          "indexed": true,
          "internalType": "uint256",
          "name": "auctionId",
          "type": "uint256"
        },
        {
          "indexed": true,
          "internalType": "address",
          "name": "bidder",
          "type": "address"
        },
        {
          "indexed": false,
          "internalType": "uint256",
          "name": "amount",
          "type": "uint256"
        },
        {
          "indexed": false,
          "internalType": "uint256",
          "name": "endTime",
          "type": "uint256"
        }
      ],
      "name": "ReserveAuctionBidPlaced",
      "type": "event"
    },
    {
      "anonymous": false,
      "inputs": [
        {
          "indexed": true,
          "internalType": "uint256",
          "name": "auctionId",
          "type": "uint256"
        }
      ],
      "name": "ReserveAuctionCanceled",
      "type": "event"
    },
    {
      "anonymous": false,
      "inputs": [
        {
          "indexed": true,
          "internalType": "uint256",
          "name": "auctionId",
          "type": "uint256"
        },
        {
          "indexed": false,
          "internalType": "string",
          "name": "reason",
          "type": "string"
        }
      ],
      "name": "ReserveAuctionCanceledByAdmin",
      "type": "event"
    },
    {
      "anonymous": false,
      "inputs": [
        {
          "indexed": false,
          "internalType": "uint256",
          "name": "minPercentIncrementInBasisPoints",
          "type": "uint256"
        },
        {
          "indexed": false,
          "internalType": "uint256",
          "name": "maxBidIncrementRequirement",
          "type": "uint256"
        },
        {
          "indexed": false,
          "internalType": "uint256",
          "name": "duration",
          "type": "uint256"
        },
        {
          "indexed": false,
          "internalType": "uint256",
          "name": "extensionDuration",
          "type": "uint256"
        },
        {
          "indexed": false,
          "internalType": "uint256",
          "name": "goLiveDate",
          "type": "uint256"
        }
      ],
      "name": "ReserveAuctionConfigUpdated",
      "type": "event"
    },
    {
      "anonymous": false,
      "inputs": [
        {
          "indexed": true,
          "internalType": "address",
          "name": "seller",
          "type": "address"
        },
        {
          "indexed": true,
          "internalType": "address",
          "name": "nftContract",
          "type": "address"
        },
        {
          "indexed": true,
          "internalType": "uint256",
          "name": "tokenId",
          "type": "uint256"
        },
        {
          "indexed": false,
          "internalType": "uint256",
          "name": "duration",
          "type": "uint256"
        },
        {
          "indexed": false,
          "internalType": "uint256",
          "name": "extensionDuration",
          "type": "uint256"
        },
        {
          "indexed": false,
          "internalType": "uint256",
          "name": "reservePrice",
          "type": "uint256"
        },
        {
          "indexed": false,
          "internalType": "uint256",
          "name": "auctionId",
          "type": "uint256"
        }
      ],
      "name": "ReserveAuctionCreated",
      "type": "event"
    },
    {
      "anonymous": false,
      "inputs": [
        {
          "indexed": true,
          "internalType": "uint256",
          "name": "auctionId",
          "type": "uint256"
        },
        {
          "indexed": true,
          "internalType": "address",
          "name": "seller",
          "type": "address"
        },
        {
          "indexed": true,
          "internalType": "address",
          "name": "bidder",
          "type": "address"
        },
        {
          "indexed": false,
          "internalType": "uint256",
          "name": "ABCFee",
          "type": "uint256"
        },
        {
          "indexed": false,
          "internalType": "uint256",
          "name": "creatorFee",
          "type": "uint256"
        },
        {
          "indexed": false,
          "internalType": "uint256",
          "name": "ownerRev",
          "type": "uint256"
        }
      ],
      "name": "ReserveAuctionFinalized",
      "type": "event"
    },
    {
      "anonymous": false,
      "inputs": [
        {
          "indexed": true,
          "internalType": "uint256",
          "name": "auctionId",
          "type": "uint256"
        },
        {
          "indexed": false,
          "internalType": "uint256",
          "name": "reservePrice",
          "type": "uint256"
        }
      ],
      "name": "ReserveAuctionUpdated",
      "type": "event"
    },
    {
      "anonymous": false,
      "inputs": [
        {
          "indexed": true,
          "internalType": "address",
          "name": "user",
          "type": "address"
        },
        {
          "indexed": false,
          "internalType": "uint256",
          "name": "amount",
          "type": "uint256"
        }
      ],
      "name": "WithdrawPending",
      "type": "event"
    },
    {
      "anonymous": false,
      "inputs": [
        {
          "indexed": true,
          "internalType": "address",
          "name": "user",
          "type": "address"
        },
        {
          "indexed": false,
          "internalType": "uint256",
          "name": "amount",
          "type": "uint256"
        }
      ],
      "name": "Withdrawal",
      "type": "event"
    },
    {
      "inputs": [
        {
          "internalType": "string",
          "name": "_tokenIPFSPath",
          "type": "string"
        },
        {
          "internalType": "address payable",
          "name": "_tokenCreatorAddress",
          "type": "address"
        },
        {
          "internalType": "uint256",
          "name": "_reservePrice",
          "type": "uint256"
        },
        {
          "internalType": "address",
          "name": "_nftContract",
          "type": "address"
        }
      ],
      "name": "MintForAndplaceFirstBidOnABC",
      "outputs": [
        {
          "internalType": "uint256",
          "name": "tokenId",
          "type": "uint256"
        }
      ],
      "stateMutability": "payable",
      "type": "function"
    },
    {
      "inputs": [
        {
          "internalType": "uint256",
          "name": "auctionId",
          "type": "uint256"
        },
        {
          "internalType": "string",
          "name": "reason",
          "type": "string"
        }
      ],
      "name": "adminCancelReserveAuction",
      "outputs": [],
      "stateMutability": "nonpayable",
      "type": "function"
    },
    {
      "inputs": [
        {
          "internalType": "uint256",
          "name": "minPercentIncrementInBasisPoints",
          "type": "uint256"
        },
        {
          "internalType": "uint256",
          "name": "duration",
          "type": "uint256"
        },
        {
          "internalType": "uint256",
          "name": "primaryABCFeeBasisPoints",
          "type": "uint256"
        },
        {
          "internalType": "uint256",
          "name": "secondaryABCFeeBasisPoints",
          "type": "uint256"
        },
        {
          "internalType": "uint256",
          "name": "secondaryCreatorFeeBasisPoints",
          "type": "uint256"
        }
      ],
      "name": "adminUpdateConfig",
      "outputs": [],
      "stateMutability": "nonpayable",
      "type": "function"
    },
    {
      "inputs": [
        {
          "internalType": "uint256",
          "name": "auctionId",
          "type": "uint256"
        }
      ],
      "name": "cancelReserveAuction",
      "outputs": [],
      "stateMutability": "nonpayable",
      "type": "function"
    },
    {
      "inputs": [
        {
          "internalType": "address",
          "name": "nftContract",
          "type": "address"
        },
        {
          "internalType": "uint256",
          "name": "tokenId",
          "type": "uint256"
        },
        {
          "internalType": "uint256",
          "name": "reservePrice",
          "type": "uint256"
        }
      ],
      "name": "createReserveAuction",
      "outputs": [],
      "stateMutability": "nonpayable",
      "type": "function"
    },
    {
      "inputs": [
        {
          "internalType": "uint256",
          "name": "auctionId",
          "type": "uint256"
        }
      ],
      "name": "finalizeReserveAuction",
      "outputs": [],
      "stateMutability": "nonpayable",
      "type": "function"
    },
    {
      "inputs": [],
      "name": "getABCproTreasury",
      "outputs": [
        {
          "internalType": "address payable",
          "name": "",
          "type": "address"
        }
      ],
      "stateMutability": "view",
      "type": "function"
    },
    {
      "inputs": [],
      "name": "getFeeConfig",
      "outputs": [
        {
          "internalType": "uint256",
          "name": "primaryABCproFeeBasisPoints",
          "type": "uint256"
        },
        {
          "internalType": "uint256",
          "name": "secondaryABCproFeeBasisPoints",
          "type": "uint256"
        },
        {
          "internalType": "uint256",
          "name": "secondaryCreatorFeeBasisPoints",
          "type": "uint256"
        }
      ],
      "stateMutability": "view",
      "type": "function"
    },
    {
      "inputs": [
        {
          "internalType": "address",
          "name": "nftContract",
          "type": "address"
        },
        {
          "internalType": "uint256",
          "name": "tokenId",
          "type": "uint256"
        },
        {
          "internalType": "uint256",
          "name": "price",
          "type": "uint256"
        }
      ],
      "name": "getFees",
      "outputs": [
        {
          "internalType": "uint256",
          "name": "ABCproFee",
          "type": "uint256"
        },
        {
          "internalType": "uint256",
          "name": "creatorSecondaryFee",
          "type": "uint256"
        },
        {
          "internalType": "uint256",
          "name": "ownerRev",
          "type": "uint256"
        }
      ],
      "stateMutability": "view",
      "type": "function"
    },
    {
      "inputs": [
        {
          "internalType": "address",
          "name": "nftContract",
          "type": "address"
        },
        {
          "internalType": "uint256",
          "name": "tokenId",
          "type": "uint256"
        }
      ],
      "name": "getIsPrimary",
      "outputs": [
        {
          "internalType": "bool",
          "name": "",
          "type": "bool"
        }
      ],
      "stateMutability": "view",
      "type": "function"
    },
    {
      "inputs": [
        {
          "internalType": "uint256",
          "name": "auctionId",
          "type": "uint256"
        }
      ],
      "name": "getMinBidAmount",
      "outputs": [
        {
          "internalType": "uint256",
          "name": "",
          "type": "uint256"
        }
      ],
      "stateMutability": "view",
      "type": "function"
    },
    {
      "inputs": [
        {
          "internalType": "address",
          "name": "user",
          "type": "address"
        }
      ],
      "name": "getPendingWithdrawal",
      "outputs": [
        {
          "internalType": "uint256",
          "name": "",
          "type": "uint256"
        }
      ],
      "stateMutability": "view",
      "type": "function"
    },
    {
      "inputs": [
        {
          "internalType": "uint256",
          "name": "auctionId",
          "type": "uint256"
        }
      ],
      "name": "getReserveAuction",
      "outputs": [
        {
          "components": [
            {
              "internalType": "address",
              "name": "nftContract",
              "type": "address"
            },
            {
              "internalType": "uint256",
              "name": "tokenId",
              "type": "uint256"
            },
            {
              "internalType": "address payable",
              "name": "seller",
              "type": "address"
            },
            {
              "internalType": "uint256",
              "name": "duration",
              "type": "uint256"
            },
            {
              "internalType": "uint256",
              "name": "extensionDuration",
              "type": "uint256"
            },
            {
              "internalType": "uint256",
              "name": "endTime",
              "type": "uint256"
            },
            {
              "internalType": "address payable",
              "name": "bidder",
              "type": "address"
            },
            {
              "internalType": "uint256",
              "name": "amount",
              "type": "uint256"
            }
          ],
          "internalType": "struct NFTMarketReserveAuction.ReserveAuction",
          "name": "",
          "type": "tuple"
        }
      ],
      "stateMutability": "view",
      "type": "function"
    },
    {
      "inputs": [],
      "name": "getReserveAuctionConfig",
      "outputs": [
        {
          "internalType": "uint256",
          "name": "minPercentIncrementInBasisPoints",
          "type": "uint256"
        },
        {
          "internalType": "uint256",
          "name": "duration",
          "type": "uint256"
        }
      ],
      "stateMutability": "view",
      "type": "function"
    },
    {
      "inputs": [
        {
          "internalType": "address",
          "name": "nftContract",
          "type": "address"
        },
        {
          "internalType": "uint256",
          "name": "tokenId",
          "type": "uint256"
        }
      ],
      "name": "getReserveAuctionIdFor",
      "outputs": [
        {
          "internalType": "uint256",
          "name": "",
          "type": "uint256"
        }
      ],
      "stateMutability": "view",
      "type": "function"
    },
    {
      "inputs": [
        {
          "internalType": "address payable",
          "name": "treasury",
          "type": "address"
        }
      ],
      "name": "initialize",
      "outputs": [],
      "stateMutability": "nonpayable",
      "type": "function"
    },
    {
      "inputs": [
        {
          "internalType": "uint256",
          "name": "auctionId",
          "type": "uint256"
        }
      ],
      "name": "placeBid",
      "outputs": [],
      "stateMutability": "payable",
      "type": "function"
    },
    {
      "inputs": [
        {
          "internalType": "uint256",
          "name": "auctionId",
          "type": "uint256"
        },
        {
          "internalType": "uint256",
          "name": "reservePrice",
          "type": "uint256"
        }
      ],
      "name": "updateReserveAuction",
      "outputs": [],
      "stateMutability": "nonpayable",
      "type": "function"
    },
    {
      "inputs": [],
      "name": "withdraw",
      "outputs": [],
      "stateMutability": "nonpayable",
      "type": "function"
    },
    {
      "inputs": [
        {
          "internalType": "address payable",
          "name": "user",
          "type": "address"
        }
      ],
      "name": "withdrawFor",
      "outputs": [],
      "stateMutability": "nonpayable",
      "type": "function"
    }
  ],
  "bytecode": "0x608060405234801561001057600080fd5b50613049806100206000396000f3fe6080604052600436106100ef5760003560e01c806303ec16d7146100f4578063204767771461011657806321506fff1461014c5780632ab2b52b1461016c5780633b230bc9146101995780633ccfd60b146101bc57806347e35740146101d15780634ce6931a146101f157806354a3e257146102115780635d83d562146102335780635ed31d8a146102535780635fbbc0d2146102735780637430e0c61461029757806374a45126146102b75780637ee8b2f8146102d75780639979ef45146102f75780639d0ab84f1461030a5780639e79b41f1461031d5780639eca672c1461034a578063c4d66de81461036a575b600080fd5b34801561010057600080fd5b5061011461010f3660046125d5565b61038a565b005b34801561012257600080fd5b50610136610131366004612479565b610458565b60405161014391906126b6565b60405180910390f35b34801561015857600080fd5b50610114610167366004612561565b610481565b34801561017857600080fd5b5061018c610187366004612479565b61067f565b6040516101439190612df0565b3480156101a557600080fd5b506101ae6106a8565b604051610143929190612e1c565b3480156101c857600080fd5b506101146106b4565b3480156101dd57600080fd5b5061018c6101ec366004612561565b6106bf565b3480156101fd57600080fd5b5061011461020c3660046124a4565b6106f8565b34801561021d57600080fd5b5061022661096b565b604051610143919061267e565b34801561023f57600080fd5b5061011461024e366004612591565b610980565b34801561025f57600080fd5b5061011461026e3660046125f6565b610c1f565b34801561027f57600080fd5b50610288610cda565b60405161014393929190612e2a565b3480156102a357600080fd5b506101146102b2366004612561565b610ceb565b3480156102c357600080fd5b506102886102d23660046124a4565b610f30565b3480156102e357600080fd5b5061018c6102f2366004612441565b610f5b565b610114610305366004612561565b610f77565b61018c6103183660046124f8565b6111fe565b34801561032957600080fd5b5061033d610338366004612561565b6113b2565b6040516101439190612d89565b34801561035657600080fd5b50610114610365366004612441565b611437565b34801561037657600080fd5b50610114610385366004612441565b611507565b80600081116103b45760405162461bcd60e51b81526004016103ab90612729565b60405180910390fd5b60008381526117776020526040902060028101546001600160a01b031633146103ef5760405162461bcd60e51b81526004016103ab9061282e565b6005810154156104115760405162461bcd60e51b81526004016103ab90612a55565b828160070181905550837f0c0f2662914f0cd1e952db2aa425901cb00e7c1f507687d22cb04e836d55d9c78460405161044a9190612df0565b60405180910390a250505050565b600061047883836104698686611596565b6104738787611620565b61162c565b90505b92915050565b6002610b875414156104a55760405162461bcd60e51b81526004016103ab90612d1b565b6002610b878190556000828152611777602090815260409182902082516101008101845281546001600160a01b0390811682526001830154938201939093529381015482169284018390526003810154606085015260048101546080850152600581015460a0850152600681015490911660c08401526007015460e083015233146105425760405162461bcd60e51b81526004016103ab9061282e565b60a0810151156105645760405162461bcd60e51b81526004016103ab90612a55565b80516001600160a01b039081166000908152611776602090815260408083208286018051855290835281842084905586845261177790925280832080546001600160a01b03199081168255600182018590556002820180548216905560038201859055600480830186905560058301869055600683018054909216909155600790910193909355845181860151925191516323b872dd60e01b81529416936323b872dd936106189330939092909101612692565b600060405180830381600087803b15801561063257600080fd5b505af1158015610646573d6000803e3d6000fd5b50506040518492507f14b9c40404d5b41deb481f9a40b8aeb2bf4b47679b38cf757075a66ed510f7f19150600090a250506001610b8755565b6001600160a01b0391909116600090815261177660209081526040808320938352929052205490565b6117785461177a549091565b6106bd33611437565b565b60008181526117776020526040812060058101546106e2576007015490506106f3565b6106ef816007015461167b565b9150505b919050565b80600081116107195760405162461bcd60e51b81526004016103ab90612729565b6002610b8754141561073d5760405162461bcd60e51b81526004016103ab90612d1b565b6002610b8755600061074d6116c5565b9050806117766000876001600160a01b03166001600160a01b03168152602001908152602001600020600086815260200190815260200160002081905550604051806101000160405280866001600160a01b03168152602001858152602001336001600160a01b0316815260200161177a54815260200161038481526020016000815260200160006001600160a01b0316815260200184815250611777600083815260200190815260200160002060008201518160000160006101000a8154816001600160a01b0302191690836001600160a01b031602179055506020820151816001015560408201518160020160006101000a8154816001600160a01b0302191690836001600160a01b03160217905550606082015181600301556080820151816004015560a0820151816005015560c08201518160060160006101000a8154816001600160a01b0302191690836001600160a01b0316021790555060e08201518160070155905050846001600160a01b03166323b872dd3330876040518463ffffffff1660e01b81526004016108e793929190612692565b600060405180830381600087803b15801561090157600080fd5b505af1158015610915573d6000803e3d6000fd5b5050505083856001600160a01b0316336001600160a01b0316600080516020612f8a83398151915261177a5461038488876040516109569493929190612e40565b60405180910390a450506001610b8755505050565b6000546201000090046001600160a01b031690565b61098861096b565b6001600160a01b03166324d7806c336040518263ffffffff1660e01b81526004016109b3919061267e565b60206040518083038186803b1580156109cb57600080fd5b505afa1580156109df573d6000803e3d6000fd5b505050506040513d601f19601f82011682018060405250810190610a0391906124d8565b610a1f5760405162461bcd60e51b81526004016103ab90612c5e565b6000815111610a405760405162461bcd60e51b81526004016103ab906127d1565b6000828152611777602090815260409182902082516101008101845281546001600160a01b03908116825260018301549382019390935260028201548316938101939093526003810154606084015260048101546080840152600581015460a0840152600681015490911660c08301526007015460e08201819052610ad75760405162461bcd60e51b81526004016103ab906128ac565b80516001600160a01b039081166000908152611776602090815260408083208286018051855290835281842084905587845261177790925280832080546001600160a01b03199081168255600182018590556002820180548216905560038201859055600480830186905560058301869055600683018054909216909155600790910193909355845181860151925191516323b872dd60e01b81529416936323b872dd93610b8b9330939092909101612692565b600060405180830381600087803b158015610ba557600080fd5b505af1158015610bb9573d6000803e3d6000fd5b5050505060c08101516001600160a01b031615610be257610be28160c001518260e001516116e0565b827f1d56d378404d81e3fc5f3dfbf88359b8cb2ecafa73b3270c478bf7b2bdd1446983604051610c1291906126c1565b60405180910390a2505050565b610c2761096b565b6001600160a01b03166324d7806c336040518263ffffffff1660e01b8152600401610c52919061267e565b60206040518083038186803b158015610c6a57600080fd5b505afa158015610c7e573d6000803e3d6000fd5b505050506040513d601f19601f82011682018060405250810190610ca291906124d8565b610cbe5760405162461bcd60e51b81526004016103ab90612c5e565b610cc885856116ee565b610cd38383836117a9565b5050505050565b610fa154610fa254610fa354909192565b6002610b87541415610d0f5760405162461bcd60e51b81526004016103ab90612d1b565b6002610b878190556000828152611777602090815260409182902082516101008101845281546001600160a01b039081168252600183015493820193909352938101548216928401929092526003820154606084015260048201546080840152600582015460a08401819052600683015490911660c084015260079091015460e0830152610daf5760405162461bcd60e51b81526004016103ab90612cb2565b428160a0015110610dd25760405162461bcd60e51b81526004016103ab90612c1e565b80516001600160a01b039081166000908152611776602090815260408083208286018051855290835281842084905586845261177790925280832080546001600160a01b03199081168255600182018590556002820180548216905560038201859055600480830186905560058301869055600683018054909216909155600790910193909355845160c0860151925191516323b872dd60e01b81529416936323b872dd93610e879330939092909101612692565b600060405180830381600087803b158015610ea157600080fd5b505af1158015610eb5573d6000803e3d6000fd5b505050506000806000610eda8460000151856020015186604001518760e00151611847565b9250925092508360c001516001600160a01b031684604001516001600160a01b0316867f2edb0e99c6ac35be6731dab554c1d1fa1b7beb675090dbb09fb14e615aca1c4a86868660405161095693929190612e2a565b6000806000610f4a8686610f448989611620565b876118f0565b939a91995092975095505050505050565b6001600160a01b03166000908152610dad602052604090205490565b6002610b87541415610f9b5760405162461bcd60e51b81526004016103ab90612d1b565b6002610b87556000818152611777602052604090206007810154610fd15760405162461bcd60e51b81526004016103ab906128ac565b6005810154611003573481600701541115610ffe5760405162461bcd60e51b81526004016103ab906128e4565b61111a565b42816005015410156110275760405162461bcd60e51b81526004016103ab90612a1f565b61105c604051806040016040528060148152602001733630b9ba1030bab1ba34b7b7173134b23232b91d60611b8152506119ca565b6006810154611073906001600160a01b0316611a10565b6110b16040518060400160405280601e81526020017f6e65772061756374696f6e2e626964646572206d73672e73656e6465723a00008152506119ca565b6110ba33611a10565b60068101546001600160a01b03163314156110e75760405162461bcd60e51b81526004016103ab90612bc2565b60006110f6826007015461167b565b9050803410156111185760405162461bcd60e51b81526004016103ab90612786565b505b6005810154611156573460078201556006810180546001600160a01b03191633179055600381015461114c9042612e5b565b60058201556111be565b600781018054600683018054349093556001600160a01b03198316331790556004830154600584015491926001600160a01b031691611196904290612eb2565b10156111b15760048301546111ab9042612e5b565b60058401555b6111bb8183611a53565b50505b336001600160a01b031682600080516020612ff48339815191523484600501546040516111ec929190612e1c565b60405180910390a350506001610b8755565b60006002610b875414156112245760405162461bcd60e51b81526004016103ab90612d1b565b6002610b875560408051808201909152600c81526b36b4b73a34b733903337b91d60a11b6020820152611256906119ca565b61125f33611a10565b60405163356ccbef60e11b81526001600160a01b03831690636ad997de9061128f908890889033906004016126d4565b602060405180830381600087803b1580156112a957600080fd5b505af19250505080156112d9575060408051601f3d908101601f191682019092526112d691810190612579565b60015b61130257600081116112fd5760405162461bcd60e51b81526004016103ab90612cf4565b611305565b90505b6113276040518060600160405280602a8152602001612faa602a913982611a60565b600061133583868487611aa5565b9050611358604051806060016040528060218152602001612f69602191396119ca565b61136181611d45565b61136a81611d88565b6113a360405180604001604052806018815260200177706c61636546697273744269644f6e41424320646f6e652160401b8152506119ca565b506001610b8755949350505050565b6113ba612361565b506000908152611777602090815260409182902082516101008101845281546001600160a01b03908116825260018301549382019390935260028201548316938101939093526003810154606084015260048101546080840152600581015460a0840152600681015490911660c08301526007015460e082015290565b6002610b8754141561145b5760405162461bcd60e51b81526004016103ab90612d1b565b6002610b87556001600160a01b0381166000908152610dad6020526040902054806114985760405162461bcd60e51b81526004016103ab90612d52565b6001600160a01b0382166000818152610dad60205260408120556114bc9082611f31565b816001600160a01b03167f7fcf532c15f0a6db0bd6d0e038bea71d30d808c7d98cb3bf7268a95bf5081b65826040516114f59190612df0565b60405180910390a250506001610b8755565b600054610100900460ff1680611520575060005460ff16155b61153c5760405162461bcd60e51b81526004016103ab90612a8f565b600054610100900460ff16158015611567576000805460ff1961ff0019909116610100171660011790555b61157082611fd2565b611578612097565b61158061209f565b8015611592576000805461ff00191690555b5050565b604051631030681960e21b81526000906001600160a01b038416906340c1a064906115c5908590600401612df0565b60206040518083038186803b1580156115dd57600080fd5b505afa92505050801561160d575060408051601f3d908101601f1916820190925261160a9181019061245d565b60015b6116195750600061047b565b905061047b565b600061047883836120a9565b6001600160a01b0384166000908152610fa46020908152604080832086845290915281205460ff161580156116725750816001600160a01b0316836001600160a01b0316145b95945050505050565b60008061271061169761177854856120f790919063ffffffff16565b6116a19190612e73565b9050806116bb576116b3836001612103565b9150506106f3565b6106ef8184612103565b61138d8054600091826116d783612ec9565b91905055905090565b61159282826203345061210f565b6127108211156117105760405162461bcd60e51b81526004016103ab90612add565b6305265c008111156117345760405162461bcd60e51b81526004016103ab90612b7e565b6103848110156117565760405162461bcd60e51b81526004016103ab90612b33565b61177882905561177a8190556040517f91b85a126da1d01639347f093e4267f458c9d95265414e2f0bd18e8c5b17d42a9061179d9084906000908590610384908390612df9565b60405180910390a15050565b61271083106117ca5760405162461bcd60e51b81526004016103ab90612877565b6127106117d78383612103565b106117f45760405162461bcd60e51b81526004016103ab90612877565b610fa1839055610fa2829055610fa38190556040517f556079cdcafac41390a4af41101fa806590aefd70725513ad900a1df6ef488799061183a90859085908590612e2a565b60405180910390a1505050565b600080600080600061185b898989896118f0565b80975081955082985083965084995050505050506001610fa460008b6001600160a01b03166001600160a01b0316815260200190815260200160002060008a815260200190815260200160002060006101000a81548160ff0219169083151502179055506118d06118ca61096b565b86611a53565b6118da82856116e0565b6118e481846116e0565b50509450945094915050565b60008060008060008060006119058b8b6121f8565b9150915060006119178c8c858d61162c565b1561192a57610fa154905081945061198d565b50610fa2546001600160a01b0382161561196757612710611957610fa3548b6120f790919063ffffffff16565b6119619190612e73565b95508196505b826001600160a01b03168a6001600160a01b031614156119895781945061198d565b8994505b61271061199a8a836120f7565b6119a49190612e73565b97506119ba866119b48b8b6122af565b906122af565b9350505050945094509450945094565b611a0d816040516024016119de91906126c1565b60408051601f198184030181529190526020810180516001600160e01b031663104c13eb60e21b1790526122bb565b50565b611a0d81604051602401611a24919061267e565b60408051601f198184030181529190526020810180516001600160e01b031663161765e160e11b1790526122bb565b6115928282614e2061210f565b6115928282604051602401611a76929190612707565b60408051601f198184030181529190526020810180516001600160e01b03166309710a9d60e41b1790526122bb565b60008160008111611ac85760405162461bcd60e51b81526004016103ab90612729565b611ae9604051806060016040528060238152602001612f26602391396119ca565b6000611af36116c5565b6001600160a01b0388166000908152611776602090815260408083208984528252918290208390558151808301909252601882527739ba30b93a102932b9b2b93b32a0bab1ba34b7b71017171760411b90820152909150611b53906119ca565b611b8e6040518060400160405280601a8152602001792932b9b2b93b32a0bab1ba34b7b71036b9b39739b2b73232b91d60311b8152506119ca565b611b9733611a10565b60408051610100810182526001600160a01b03808a16825260208083018981528a831684860190815261177a546060860190815261038460808701908152600060a0880181815260c0890182815260e08a018f81528c84526117778952928b902099518a54908a166001600160a01b0319918216178b55965160018b0155945160028a018054918a1691881691909117905592516003890155905160048801559051600587015590516006860180549190951692169190911790925590516007909201919091558151808301909252601982527839ba30b93a34b733903a3930b739b332b9233937b69017171760391b90820152611c94906119ca565b6040516323b872dd60e01b81526001600160a01b038816906323b872dd90611cc490339030908a90600401612692565b600060405180830381600087803b158015611cde57600080fd5b505af1158015611cf2573d6000803e3d6000fd5b5050505084876001600160a01b0316876001600160a01b0316600080516020612f8a83398151915261177a546103848987604051611d339493929190612e40565b60405180910390a49695505050505050565b611a0d81604051602401611d599190612df0565b60408051601f198184030181529190526020810180516001600160e01b031663f5b1bba960e01b1790526122bb565b6000818152611777602052604090206007810154611db85760405162461bcd60e51b81526004016103ab906128ac565b611de2604051806040016040528060098152602001686d73672e76616c756560b81b8152506119ca565b611deb34611d45565b611e1a6040518060400160405280600e81526020016d185d58dd1a5bdb8b985b5bdd5b9d60921b8152506119ca565b611e278160070154611d45565b3481600701541115611e4b5760405162461bcd60e51b81526004016103ab906128e4565b611e866040518060400160405280601a81526020017930bab1ba34b7b7173134b23232b91036b9b39739b2b73232b91d60311b8152506119ca565b611e8f33611a10565b611ec96040518060400160405280601981526020017830bab1ba34b7b71730b6b7bab73a1036b9b3973b30b63ab29d60391b8152506119ca565b611ed234611d45565b3460078201556006810180546001600160a01b031916331790556003810154611efb9042612e5b565b6005820181905560405133918491600080516020612ff483398151915291611f2591349190612e1c565b60405180910390a35050565b80471015611f515760405162461bcd60e51b81526004016103ab906129e8565b6000826001600160a01b031682604051611f6a9061267b565b60006040518083038185875af1925050503d8060008114611fa7576040519150601f19603f3d011682016040523d82523d6000602084013e611fac565b606091505b5050905080611fcd5760405162461bcd60e51b81526004016103ab9061298e565b505050565b600054610100900460ff1680611feb575060005460ff16155b6120075760405162461bcd60e51b81526004016103ab90612a8f565b600054610100900460ff16158015612032576000805460ff1961ff0019909116610100171660011790555b612044826001600160a01b03166122dc565b6120605760405162461bcd60e51b81526004016103ab90612941565b6000805462010000600160b01b031916620100006001600160a01b038516021790558015611592576000805461ff00191690555050565b600161138d55565b6201518061177a55565b6001600160a01b03808316600090815261177660209081526040808320858452825280832054835261177790915281206002015490911680610478576120ef84846122e2565b91505061047b565b60006104788284612e93565b60006104788284612e5b565b8161211957611fcd565b6000836001600160a01b03168383906040516121349061267b565b600060405180830381858888f193505050503d8060008114612172576040519150601f19603f3d011682016040523d82523d6000602084013e612177565b606091505b50509050806121f2576001600160a01b0384166000908152610dad60205260409020546121a49084612103565b6001600160a01b0385166000818152610dad6020526040908190209290925590517f9a92c3472ba0d2d183e38c3801bae5d41d693c2803377eae8b0f94683862253e9061044a908690612df0565b50505050565b60008060006122078585611596565b60405163762fba9760e11b81529091506001600160a01b0386169063ec5f752e90612236908790600401612df0565b60206040518083038186803b15801561224e57600080fd5b505afa92505050801561227e575060408051601f3d908101601f1916820190925261227b9181019061245d565b60015b612287576122a2565b6001600160a01b038116156122a05790925090506122a8565b505b91508190505b9250929050565b60006104788284612eb2565b80516a636f6e736f6c652e6c6f67602083016000808483855afa5050505050565b3b151590565b6040516331a9108f60e11b81526000906001600160a01b03841690636352211e90612311908590600401612df0565b60206040518083038186803b15801561232957600080fd5b505afa15801561233d573d6000803e3d6000fd5b505050506040513d601f19601f82011682018060405250810190610478919061245d565b60405180610100016040528060006001600160a01b031681526020016000815260200160006001600160a01b0316815260200160008152602001600081526020016000815260200160006001600160a01b03168152602001600081525090565b600082601f8301126123d1578081fd5b81356001600160401b03808211156123eb576123eb612efa565b604051601f8301601f19168101602001828111828210171561240f5761240f612efa565b604052828152848301602001861015612426578384fd5b82602086016020830137918201602001929092529392505050565b600060208284031215612452578081fd5b813561047881612f10565b60006020828403121561246e578081fd5b815161047881612f10565b6000806040838503121561248b578081fd5b823561249681612f10565b946020939093013593505050565b6000806000606084860312156124b8578081fd5b83356124c381612f10565b95602085013595506040909401359392505050565b6000602082840312156124e9578081fd5b81518015158114610478578182fd5b6000806000806080858703121561250d578081fd5b84356001600160401b03811115612522578182fd5b61252e878288016123c1565b945050602085013561253f81612f10565b925060408501359150606085013561255681612f10565b939692955090935050565b600060208284031215612572578081fd5b5035919050565b60006020828403121561258a578081fd5b5051919050565b600080604083850312156125a3578182fd5b8235915060208301356001600160401b038111156125bf578182fd5b6125cb858286016123c1565b9150509250929050565b600080604083850312156125e7578182fd5b50508035926020909101359150565b600080600080600060a0868803121561260d578081fd5b505083359560208501359550604085013594606081013594506080013592509050565b60008151808452815b8181101561265557602081850181015186830182015201612639565b818111156126665782602083870101525b50601f01601f19169290920160200192915050565b90565b6001600160a01b0391909116815260200190565b6001600160a01b039384168152919092166020820152604081019190915260600190565b901515815260200190565b6000602082526104786020830184612630565b6000606082526126e76060830186612630565b6001600160a01b0394851660208401529290931660409091015292915050565b60006040825261271a6040830185612630565b90508260208301529392505050565b6020808252603d908201527f4e46544d61726b65745265736572766541756374696f6e3a205265736572766560408201527f207072696365206d757374206265206174206c65617374203120776569000000606082015260800190565b6020808252602b908201527f4e46544d61726b65745265736572766541756374696f6e3a2042696420616d6f60408201526a756e7420746f6f206c6f7760a81b606082015260800190565b6020808252603f908201527f4e46544d61726b65745265736572766541756374696f6e3a20496e636c75646560408201527f206120726561736f6e20666f7220746869732063616e63656c6c6174696f6e00606082015260800190565b60208082526029908201527f4e46544d61726b65745265736572766541756374696f6e3a204e6f7420796f75604082015268391030bab1ba34b7b760b91b606082015260800190565b6020808252601b908201527a4e46544d61726b6574466565733a2046656573203e3d203130302560281b604082015260600190565b6020808252602a90820152600080516020612fd4833981519152604082015269081b9bdd08199bdd5b9960b21b606082015260800190565b6020808252603f908201527f4e46544d61726b65745265736572766541756374696f6e3a20426964206d757360408201527f74206265206174206c6561737420746865207265736572766520707269636500606082015260800190565b6020808252602d908201527f41424370726f54726561737572794e6f64653a2041646472657373206973206e60408201526c1bdd08184818dbdb9d1c9858dd609a1b606082015260800190565b6020808252603a908201527f416464726573733a20756e61626c6520746f2073656e642076616c75652c20726040820152791958da5c1a595b9d081b585e481a185d99481c995d995c9d195960321b606082015260800190565b6020808252601d908201527f416464726573733a20696e73756666696369656e742062616c616e6365000000604082015260600190565b6020808252602890820152600080516020612fd48339815191526040820152671034b99037bb32b960c11b606082015260800190565b6020808252602c90820152600080516020612fd483398151915260408201526b20696e2070726f677265737360a01b606082015260800190565b6020808252602e908201527f496e697469616c697a61626c653a20636f6e747261637420697320616c72656160408201526d191e481a5b9a5d1a585b1a5e995960921b606082015260800190565b60208082526036908201527f4e46544d61726b65745265736572766541756374696f6e3a204d696e20696e6360408201527572656d656e74206d757374206265203c3d203130302560501b606082015260800190565b6020808252603f90820152600080516020612f4983398151915260408201527f6e206d757374206265203e3d20455854454e53494f4e5f4455524154494f4e00606082015260800190565b6020808252603690820152600080516020612f498339815191526040820152756e206d757374206265203c3d2031303030206461797360501b606082015260800190565b6020808252603c908201527f4e46544d61726b65745265736572766541756374696f6e3a20596f7520616c7260408201527b1958591e481a185d9948185b881bdd5d1cdd185b991a5b99c8189a5960221b606082015260800190565b6020808252603290820152600080516020612fd4833981519152604082015271207374696c6c20696e2070726f677265737360701b606082015260800190565b60208082526034908201527f41424370726f41646d696e526f6c653a2063616c6c657220646f6573206e6f746040820152732068617665207468652041646d696e20726f6c6560601b606082015260800190565b6020808252603490820152600080516020612fd4833981519152604082015273081dd85cc8185b1c9958591e481cd95d1d1b195960621b606082015260800190565b6020808252600d908201526c16915493d7d513d2d15397d251609a1b604082015260600190565b6020808252601f908201527f5265656e7472616e637947756172643a207265656e7472616e742063616c6c00604082015260600190565b6020808252601f908201527f4e6f2066756e6473206172652070656e64696e67207769746864726177616c00604082015260600190565b60006101008201905060018060a01b0380845116835260208401516020840152806040850151166040840152606084015160608401526080840151608084015260a084015160a08401528060c08501511660c08401525060e083015160e083015292915050565b90815260200190565b948552602085019390935260408401919091526060830152608082015260a00190565b918252602082015260400190565b9283526020830191909152604082015260600190565b93845260208401929092526040830152606082015260800190565b60008219821115612e6e57612e6e612ee4565b500190565b600082612e8e57634e487b7160e01b81526012600452602481fd5b500490565b6000816000190483118215151615612ead57612ead612ee4565b500290565b600082821015612ec457612ec4612ee4565b500390565b6000600019821415612edd57612edd612ee4565b5060010190565b634e487b7160e01b600052601160045260246000fd5b634e487b7160e01b600052604160045260246000fd5b6001600160a01b0381168114611a0d57600080fdfe7374617274206372656174655265736572766541756374696f6e4f6e414243202e2e2e4e46544d61726b65745265736572766541756374696f6e3a204475726174696f7374617274696e67202e2e2e20706c6163654269642061756374696f6e49643a201062dd3b35f12b4064331244d00f40c1d4831965e4285654157a2409c6217cff6d696e74466f72416e64417070726f76654d61726b65744f6e41424320646f6e6521746f6b656e49643a4e46544d61726b65745265736572766541756374696f6e3a2041756374696f6e26ea3ebbda62eb1baef13e1c237dddd956c87f80b2801f2616d806d52557b121a2646970667358221220bc55936d625da28a80b0e737da6f9a00cde0cb8ccc02ce2c5a71e094f505732364736f6c63430008000033",
  "linkReferences": {},
  "deployedLinkReferences": {}
}